{
  "transactions": [
    {
      "hash": "0xabd04836f4d9c186dddfeb890504664c2df58a3156c95a4c4e8fdeaac19b75f0",
      "transactionType": "CALL",
      "contractName": null,
      "contractAddress": "0x779877a7b0d9e8603169ddbd7836e478b4624789",
      "function": "transferAndCall(address,uint256,bytes)",
      "arguments": [
        "0x9DdfaCa8183c41ad55329BdeeD9F6A8d53168B1B",
        "3000000000000000000",
        "0x6f13fe0a9ec41fd817107de64cbb798e221758a23d0b06cf7d9f056d8ef803c4"
      ],
      "transaction": {
        "from": "0xdd38a864c72b825c5f10b6da2c2f0f8bfec07c42",
        "to": "0x779877a7b0d9e8603169ddbd7836e478b4624789",
        "gas": "0x1c1ff",
        "value": "0x0",
        "input": "0x4000aea00000000000000000000000009ddfaca8183c41ad55329bdeed9f6a8d53168b1b00000000000000000000000000000000000000000000000029a2241af62c0000000000000000000000000000000000000000000000000000000000000000006000000000000000000000000000000000000000000000000000000000000000206f13fe0a9ec41fd817107de64cbb798e221758a23d0b06cf7d9f056d8ef803c4",
        "nonce": "0x1",
        "chainId": "0xaa36a7"
      },
      "additionalContracts": [],
      "isFixedGasLimit": false
    }
  ],
  "receipts": [
    {
      "status": "0x1",
      "cumulativeGasUsed": "0xc9d6a7",
      "logs": [
        {
          "address": "0x779877a7b0d9e8603169ddbd7836e478b4624789",
          "topics": [
            "0xddf252ad1be2c89b69c2b068fc378daa952ba7f163c4a11628f55a4df523b3ef",
            "0x000000000000000000000000dd38a864c72b825c5f10b6da2c2f0f8bfec07c42",
            "0x0000000000000000000000009ddfaca8183c41ad55329bdeed9f6a8d53168b1b"
          ],
          "data": "0x00000000000000000000000000000000000000000000000029a2241af62c0000",
          "blockHash": "0x0ad510257dfda38a81fe6d826277d1b628f3bdd61da599656720dc1749db62a3",
          "blockNumber": "0x892830",
          "blockTimestamp": "0x689efe0c",
          "transactionHash": "0xabd04836f4d9c186dddfeb890504664c2df58a3156c95a4c4e8fdeaac19b75f0",
          "transactionIndex": "0x65",
          "logIndex": "0xe6",
          "removed": false
        },
        {
          "address": "0x779877a7b0d9e8603169ddbd7836e478b4624789",
          "topics": [
            "0xe19260aff97b920c7df27010903aeb9c8d2be5d310a2c67824cf3f15396e4c16",
            "0x000000000000000000000000dd38a864c72b825c5f10b6da2c2f0f8bfec07c42",
            "0x0000000000000000000000009ddfaca8183c41ad55329bdeed9f6a8d53168b1b"
          ],
          "data": "0x00000000000000000000000000000000000000000000000029a2241af62c0000000000000000000000000000000000000000000000000000000000000000004000000000000000000000000000000000000000000000000000000000000000206f13fe0a9ec41fd817107de64cbb798e221758a23d0b06cf7d9f056d8ef803c4",
          "blockHash": "0x0ad510257dfda38a81fe6d826277d1b628f3bdd61da599656720dc1749db62a3",
          "blockNumber": "0x892830",
          "blockTimestamp": "0x689efe0c",
          "transactionHash": "0xabd04836f4d9c186dddfeb890504664c2df58a3156c95a4c4e8fdeaac19b75f0",
          "transactionIndex": "0x65",
          "logIndex": "0xe7",
          "removed": false
        },
        {
          "address": "0x9ddfaca8183c41ad55329bdeed9f6a8d53168b1b",
          "topics": [
            "0x1ced9348ff549fceab2ac57cd3a9de38edaaab274b725ee82c23e8fc8c4eec7a",
            "0x6f13fe0a9ec41fd817107de64cbb798e221758a23d0b06cf7d9f056d8ef803c4"
          ],
          "data": "0x000000000000000000000000000000000000000000000000000000000000000000000000000000000000000000000000000000000000000029a2241af62c0000",
          "blockHash": "0x0ad510257dfda38a81fe6d826277d1b628f3bdd61da599656720dc1749db62a3",
          "blockNumber": "0x892830",
          "blockTimestamp": "0x689efe0c",
          "transactionHash": "0xabd04836f4d9c186dddfeb890504664c2df58a3156c95a4c4e8fdeaac19b75f0",
          "transactionIndex": "0x65",
          "logIndex": "0xe8",
          "removed": false
        }
      ],
      "logsBloom": "0x00000004000000000000000000000000000000000020000000000000020000000000000000000000000000000000000000000000000000000020000000000000000000000000000000000008000000000020000000000000000020000020000008000000000000000000000000000000080000000000000000000010000040000000000000000000000000010000800000000020000000000000000000000000000000000000000000000000010000000000000000000000000004000000000000000002000000000000000000000000000000000000000500000000000000000010000000000080800000000000000000000000000000000000001000000000",
      "type": "0x2",
      "transactionHash": "0xabd04836f4d9c186dddfeb890504664c2df58a3156c95a4c4e8fdeaac19b75f0",
      "transactionIndex": "0x65",
      "blockHash": "0x0ad510257dfda38a81fe6d826277d1b628f3bdd61da599656720dc1749db62a3",
      "blockNumber": "0x892830",
      "gasUsed": "0x133b1",
      "effectiveGasPrice": "0x9683fa",
      "from": "0xdd38a864c72b825c5f10b6da2c2f0f8bfec07c42",
      "to": "0x779877a7b0d9e8603169ddbd7836e478b4624789",
      "contractAddress": null
    }
  ],
  "libraries": [],
  "pending": [],
  "returns": {},
  "timestamp": 1755250191,
  "chain": 11155111,
  "commit": null
}